:100000001AC034C033C032C031C030C02FC02EC07F
:100010002DC0C4C09FC037C329C0FDC227C026C0A1
:1000200025C024C023C052C154C157C15AC15DC1AB
:1000300060C163C166C111241FBECFE5D4E0DEBF3D
:10004000CDBF11E0A0E6B0E0EEEFFCE002C005900D
:100050000D92AC32B107D9F722E0ACE2B1E001C0B9
:100060001D92A830B207E1F7D9D147C6C9CFCF93C7
:10007000C82F8A3011F48DE0FADF8C2FC0D2CF91D7
:100080000895C3D2089580E895E28ED2E2E0F2E0CE
:100090008EE690E09383828380E690E09183808374
:1000A00081E080932C0108950F931F93CF93DF93EA
:1000B000CDB7DEB7C456D1090FB6F894DEBF0FBE78
:1000C000CDBF80912C01811104C0DDDF81E08093E0
:1000D0002C019E0123593F4FAD964EAD5FADAD97BC
:1000E00064E670E08E010F5F1F4FC80124D31F9399
:1000F0000F938CE790E09F938F930AD30F900F900C
:100100000F900F90CC59DF4F0FB6F894DEBF0FBEA3
:10011000CDBFDF91CF911F910F91089587B38C626E
:1001200087BBBC98C49A83ED8DB91EB808958FB96A
:1001300077990CC088E28150779904C08111FBCF78
:100140008FEF0895882321F08EEF08958EEF0895A4
:100150008FEF08951F920F920FB60F9211242F93D5
:100160003F934F935F936F937F938F939F93AF933F
:10017000BF93EF93FF938AE0E6D1FF91EF91BF9198
:10018000AF919F918F917F916F915F914F913F912F
:100190002F910F900FBE0F901F9018951F920F92E6
:1001A0000FB60F9211242F933F934F935F936F934A
:1001B0007F938F939F93AF93BF93EF93FF93809120
:1001C0002D0190912E01A0912F01B0913001019647
:1001D000A11DB11D80932D0190932E01A0932F019D
:1001E000B09330018091310190913201A09133019F
:1001F000B09134010196A11DB11D809331019093FE
:100200003201A0933301B093340183E882BF60913F
:100210002D0170912E0180912F019091300128EED7
:1002200033E040E050E052D2672B682B692B79F421
:1002300010922D0110922E0110922F011092300178
:1002400080E890E09F938F932FDF0F900F90E091C5
:100250000002F0910102309709F00995FF91EF91AA
:10026000BF91AF919F918F917F916F915F914F91CE
:100270003F912F910F900FBE0F901F9018958130D6
:1002800049F028F0823051F0833061F00FC08FB513
:100290008FBD08958FB580658FBD08958FB5806A35
:1002A0008FBD08958FB5806F8FBD089580E990E070
:1002B0009F938F93F9DE0F900F90089590E0883010
:1002C000910518F5FC01ED5EFF4F09948EB58EBDCA
:1002D00008958EB581608EBD08958EB582608EBD05
:1002E00008958EB583608EBD08958EB584608EBDF1
:1002F00008958EB585608EBD08958EB586608EBDDD
:1003000008958EB587608EBD08958CEA90E09F9326
:100310008F93CADE0F900F900895CF93DF93C62F6F
:10032000D42F883021F080F08B30A8F00DC08EB52E
:100330008F7E8EBD8EB588608EBD8FB58D7F8FBD53
:100340008FB581608FBD07C084EC90E09F938F9341
:10035000ABDE0F900F901BBC1ABC19BC18BC8D2FC4
:10036000ADDF8C2F8CDFDF91CF9108959BBD8ABDCF
:10037000089599BD88BD089504B600FE09C014BE55
:1003800081ED90E09F938F938FDE0F900F900895F3
:1003900004B601FE09C014BE80EE90E09F938F93D7
:1003A00083DE0F900F90089504B602FE09C014BEBC
:1003B0008FEE90E09F938F9377DE0F900F900895CC
:1003C00004B603FE09C014BE8FEF90E09F938F9395
:1003D0006BDE0F900F9008958EE091E09F938F93C6
:1003E00063DE0F900F90089580913501811107C051
:1003F000F894809135018F5F8093350108958F5F68
:1004000080933501089580913501882329F081502A
:1004100080933501811101C07894089561E08AE0EC
:100420002CD061E081E029D060E088E026D086E031
:1004300087BBDADF80E895E2B7D070DE45E062E0A6
:1004400088E06BDF8FE790E091DF8FE790E091DF4E
:10045000DADF92DFCCE1D1E0DF93CF9325DE81E0DC
:1004600066DE9FE32DE083E0915020408040E1F77D
:1004700000C000000F900F90EFCF623008F062C014
:100480008830E8F4662369F047B321E030E0B90131
:1004900002C0660F771F8A95E2F7CB01842B87BBDA
:1004A000089547B321E030E0B90102C0660F771F1D
:1004B0008A95E2F7CB018095842387BB089598EF56
:1004C000980F9730F0F4662369F044B321E030E0F0
:1004D000B90102C0660F771F9A95E2F7CB01842B12
:1004E00084BB089544B3885021E030E0B90102C0D4
:1004F000660F771F8A95E2F7CB018095842384BB32
:10050000089591EF980F9830E8F4662369F041B3AD
:1005100021E030E0B90102C0660F771F9A95E2F73B
:10052000CB01842B81BB089541B38F5021E030E093
:10053000B90102C0660F771F8A95E2F7CB0180955B
:10054000842381BB0895883068F448B321E030E00B
:10055000B90102C0660F771F8A95E2F7CB018427A5
:1005600088BB089598EF980F973068F445B321E061
:1005700030E0B90102C0660F771F9A95E2F7CB0110
:10058000842785BB089591EF980F983060F442B3AB
:1005900021E030E0B90102C0660F771F9A95E2F7BB
:1005A000CB01842782BB08959C01599A549A539A8F
:1005B000579A569A80B5806880BD80B5826080BDAC
:1005C00080B5846080BDC901A0E0B0E0880F991FAC
:1005D000AA1FBB1F880F991FAA1FBB1F9C01AD013B
:1005E000220F331F441F551F60E472E48FE090E038
:1005F0006DD0215031093F7730BD29B908955D9BF9
:10060000FECF539A8CB953980895549A5F9BFECFAE
:1006100054988CB108951F920F920FB60F92112427
:100620002F933F934F935F936F937F938F939F93FA
:10063000AF93BF93EF93FF93E0919B01EF5FE09344
:100640009B01F0E0E456FE4F8081882311F0D7DF54
:1006500009C010929B0184E6ECE9F1E0DF011D92F4
:100660008A95E9F7FF91EF91BF91AF919F918F919B
:100670007F916F915F914F913F912F910F900FBE9E
:100680000F901F9018951F920F920FB60F92112482
:100690008F939F93EF93FF938CB18D3071F08A30DD
:1006A00061F090913601953640F4E92FF0E0E95C75
:1006B000FE4F80839F5F90933601FF91EF919F9152
:1006C0008F910F900FBE0F901F901895A1E21A2ED8
:1006D000AA1BBB1BFD010DC0AA1FBB1FEE1FFF1FE6
:1006E000A217B307E407F50720F0A21BB30BE40B36
:1006F000F50B661F771F881F991F1A9469F760957D
:100700007095809590959B01AC01BD01CF01089536
:10071000A0E0B0E0EDE8F3E0C9C2AE014B5F5F4F8F
:10072000FA0161917191AF018091040290910502EB
:100730002BD0E2E0D7C2AEE0B0E0E0EAF3E0B4C232
:100740008C01FA0186E08C831A83098377FF02C04B
:1007500060E070E8CB0101979E838D83A901BF0102
:10076000CE01019611D04D815E8157FD0AC02F81C7
:100770003885421753070CF49A01F801E20FF31F72
:1007800010822E96E4E0ACC2ABE0B0E0E9ECF3E01E
:100790007DC26C017B018A01FC0117821682838174
:1007A00081FFBFC1CE0101963C01F6019381F701A3
:1007B00093FD859193FF81917F01882309F4ADC159
:1007C000853239F493FD859193FF81917F018532C4
:1007D00021F4B60190E0C0D1E8CF912C212C312C2E
:1007E000FFE1F315D8F08B3279F038F4803279F0EC
:1007F0008332A1F4232D20611DC08D3261F080333E
:1008000069F4232D216016C0832D8260382EE32DDC
:10081000E4603E2E2AC0F32DF8601DC037FC2DC0C9
:1008200020ED280F2A3040F08E32B9F436FC75C125
:10083000232D2064322E19C036FE06C08AE0989E11
:10084000200D1124922E11C0EAE02E9E200D1124BD
:10085000222EF32DF0623F2E08C08C3621F4832D1A
:100860008068382E02C0883641F4F70193FD8591E7
:1008700093FF81917F018111B3CF982F9F7D955474
:10088000933028F40C5F1F4F9FE399830DC083368C
:1008900031F0833771F0833509F055C020C0F8017D
:1008A000808189830E5F1F4F88248394912C53018C
:1008B00012C02801F2E04F0E511CF801A080B18057
:1008C00036FE03C0692D70E002C06FEF7FEFC501F7
:1008D00038D14C018201F32DFF773F2E15C028013E
:1008E00022E0420E511CF801A080B18036FE03C008
:1008F000692D70E002C06FEF7FEFC50117D14C0189
:10090000F32DF0683F2E820133FC19C0822D90E058
:1009100088169906A0F4B60180E290E01DD12A94D1
:10092000F5CFF50137FC859137FE81915F01B60166
:1009300090E012D121102A9421E0821A91088114AA
:10094000910479F7E1C0843611F0893639F5F80160
:1009500037FE07C060817181828193810C5F1F4FD8
:1009600008C060817181072E000C880B990B0E5F07
:100970001F4FF32DFF763F2E97FF09C0909580956E
:10098000709561957F4F8F4F9F4FF0683F2E2AE003
:1009900030E0A3011DD1882E861844C0853731F47C
:1009A000232D2F7EB22E2AE030E025C0932D997F93
:1009B000B92E8F36C1F018F4883579F0AEC0803783
:1009C00019F0883721F0A9C0E92FE061BE2EB4FEEE
:1009D0000DC0FB2DF460BF2E09C034FE0AC0292FC4
:1009E0002660B22E06C028E030E005C020E130E0ED
:1009F00002C020E132E0F801B7FE07C060817181DA
:100A0000828193810C5F1F4F06C06081718180E0FD
:100A100090E00E5F1F4FA301DBD0882E8618FB2DC0
:100A2000FF773F2E36FE0DC0232D2E7FA22E891478
:100A300058F434FE0BC032FC09C0832D8E7EA82EE4
:100A400005C0B82CA32C03C0B82C01C0B92CA4FE3F
:100A50000FC0FE01E80DF11D8081803321F49A2D35
:100A6000997EA92E09C0A2FE06C0B394B39404C017
:100A70008A2D867809F0B394A3FC10C0A0FE06C0AE
:100A8000B21480F4280C922C9B180DC0B21458F4A8
:100A9000B60180E290E060D0B394F8CFB21418F4BD
:100AA0002B1802C0982C212CA4FE0FC0B60180E3A5
:100AB00090E052D0A2FE16C0A1FC03C088E790E0EF
:100AC00002C088E590E0B6010CC08A2D867851F00E
:100AD000A1FE02C08BE201C080E2A7FC8DE2B6015C
:100AE00090E03AD0891430F4B60180E390E034D03D
:100AF0009A94F8CF8A94F301E80DF11D8081B60134
:100B000090E02AD08110F6CF222009F44ECEB60113
:100B100080E290E021D02A94F7CFF6018681978178
:100B200002C08FEF9FEF2B96E2E1CCC0FC01059055
:100B3000615070400110D8F7809590958E0F9F1FDF
:100B40000895FC016150704001900110D8F7809524
:100B500090958E0F9F1F08950F931F93CF93DF9350
:100B6000FB01238121FD03C08FEF9FEF2CC022FFEB
:100B700016C046815781248135814217530744F4BA
:100B8000A081B1819D012F5F3F4F318320838C93E2
:100B9000268137812F5F3F4F3783268314C08B0117
:100BA000EC01FB010084F185E02D0995892BE1F62C
:100BB000D80116968D919C911797019617969C9344
:100BC0008E931697CE01DF91CF911F910F910895CB
:100BD000FA01AA27283051F1203181F1E8946F936E
:100BE0006E7F6E5F7F4F8F4F9F4FAF4FB1E03ED014
:100BF000B4E03CD0670F781F891F9A1FA11D680FB2
:100C0000791F8A1F911DA11D6A0F711D811D911DE4
:100C1000A11D20D009F468943F912AE0269F112459
:100C20003019305D3193DEF6CF010895462F4770BD
:100C3000405D4193B3E00FD0C9F7F6CF462F4F7018
:100C4000405D4A3318F0495D31FD4052419302D076
:100C5000A9F7EACFB4E0A69597958795779567951C
:100C6000BA95C9F700976105710508959B01AC011C
:100C70000A2E06945795479537952795BA95C9F743
:100C8000620F731F841F951FA01D08952F923F921E
:100C90004F925F926F927F928F929F92AF92BF928C
:100CA000CF92DF92EF92FF920F931F93CF93DF9338
:100CB000CDB7DEB7CA1BDB0B0FB6F894DEBF0FBE95
:100CC000CDBF09942A88398848885F846E847D84E2
:100CD0008C849B84AA84B984C884DF80EE80FD80E4
:100CE0000C811B81AA81B981CE0FD11D0FB6F8945A
:0E0CF000DEBF0FBECDBFED010895F894FFCF1B
:100CFE0000000001000000000000410000000000A4
:100D0E0000020000000037000000000025730D00F7
:100D1E0031207365636F6E64207061737365640058
:100D2E00496E76616C6964205431204D6F64652084
:100D3E00526571756573746564212100496E766123
:100D4E006C6964207072657363616C657220766184
:100D5E006C756500496E76616C6964206D6F6465B3
:100D6E0000506F7765722D6F6E205265736574003B
:100D7E0045787465726E616C2052657365740042BD
:100D8E00726F776E2D4F75742052657365740057B0
:100D9E0061746368646F6720526573657400554EA5
:100DAE004B4E4F574E205245534554006C6F67675C
:0C0DBE006572207465737421200A000027
:00000001FF
